:020000041000EA
:10000000002008205D0100101301001015010010F0
:100010001101001011010010110100101101001058
:100020001101001011010010110100101701001042
:100030001101001011010010190100101B01001026
:100040001D0100101D0100101D0100101D010010F8
:100050001D0100101D0100101D0100101D010010E8
:100060001D0100101D0100101D0100101D010010D8
:100070001D0100101D0100101D0100101D010010C8
:100080001D0100101D0100101D0100101D010010B8
:100090001D0100101D0100101D0100101D010010A8
:1000A0001D0100101D0100101D0100101D01001098
:1000B0001D0100101D0100101D0100101D01001088
:1000C0001D0100101D0100101D0100101D01001078
:1000D0001D0100101D0100101D0100101D01001068
:1000E0001D0100101D0100101D0100101D01001058
:1000F0001D0100101D0100101D0100101D01001048
:100100001D0100101D0100101D0100101D01001037
:1001100000BE00BE00BE00BE00BE00BEEFF3058004
:10012000103800BEF2EB8871185C0010485C0010BB
:10013000A801001090A31AE7D3DEFFFF42012110AF
:10014000FF01000074670000793512AB4FF000002A
:100150002049086006C881F3088810474FF05040D6
:10016000006810B14FF00000F2E70FA40ECC002998
:1001700002D000F015F8F9E71749184A002000E00E
:1001800001C19142FCD1002080F30A8814498847BC
:10019000144988471449884700BEFDE701C901C2D8
:1001A0009A42FBD3704700BF485C0010100100204A
:1001B000740D0020AC68001000000820000008202A
:1001C000AC6800100010082000100820000000009B
:1001D0007047000008ED00E0740D0020DC180020DE
:1001E000BD340010F5050010B5340010F8B500BF9F
:1001F00010B5054C237833B9044B13B1044800E023
:1002000000BF0123237010BDF80E00200000000085
:10021000A855001008B5034B1BB10349034800E083
:1002200000BF08BD00000000FC0E0020A855001013
:1002300000B585B00B4803AB02AA01A901F02CFC64
:1002400018B90849084800F0DDFADDE90212019802
:1002500001F0E8FBF021054803F0A8FA05B05DF8CD
:1002600004FB00BF80A90300CC550010A855001066
:1002700038B50D2000F0A4FA0C2000F0A1FA0D25ED
:10028000012141EC44500C24002242EC4440204621
:1002900000F07EFA22462946BDE83840014803F0C6
:1002A00085BA00BF00560010F8B51A4E1A4B3478C4
:1002B0001B78013404F00F04A34228D0337802687D
:1002C000164F03EB430347F8232001F055FA0023B0
:1002D0000A46357813438446EDB211D11048A0FB8D
:1002E0000C3083090120327805EB450502EB420210
:1002F00007EB850507EB82076B6034703872F8BD39
:1003000000234FF47A7205F0DBF80346EAE7002099
:10031000F8BD00BFF3170020F417002010120020D2
:10032000D34D6210124A134B11781B7899421DD09D
:1003300070B41378104903EB430301EB83030446C5
:10034000187A88B100261578137805EB450503EB7C
:10035000430351F8255001EB8301137825600133E5
:1003600003F00F030E72137070BC704700207047CB
:10037000F4170020F317002010120020124A134B2C
:1003800011781B7899421DD070B41378104903EB93
:10039000430301EB83030446187A88B100261578DD
:1003A000137805EB450503EB430351F8255001EBAA
:1003B000830113782560013303F00F030E7213706D
:1003C00070BC704700207047F6170020F51700201A
:1003D000DC120020F0B585B001F0CEF900230A460A
:1003E00013433FD04FF47A72002305F069F80446B6
:1003F00041F288322B4D2B68E31A934238D84FF0E4
:1004000050435B68DB0403D4274B5A78002A43D05F
:1004100003A8FFF787FF18B30D2603AD04AF002430
:100420002B78234103F0010343EC40600A200021B4
:10043000013401F009F9082CF2D10135AF42EED1B7
:100440009DF80F209DF80E3000929DF80C109DF83D
:100450000D20164803F0AAF9134A136901331361FA
:1004600005B0F0BD04461248A0FB0434A409BFE760
:100470000D26012343EC40606420002101F0E4F8E4
:10048000002343EC40600B4803F04AF9064A2C6015
:10049000136901331361B2E7012207485A7003F070
:1004A0003FF9B5E79C170020D817002068560010C8
:1004B000D34D6210305600104856001008B506485B
:1004C00003F02EF90122054B5A70FFF783FF0A2033
:1004D00001F0D0F8F9E700BFA8560010D8170020A7
:1004E00000B585B003A8FFF749FF10B905B05DF866
:1004F00004FB002003A904F0EFFA0028F6D09DF8D1
:100500000F209DF80E3000929DF80C109DF80D20E4
:10051000044803F04BF9044A93680133936005B033
:100520005DF804FBD4560010D81700202DE9F041E7
:1005300001F022F900230A4613430ED04FF47A72D9
:10054000002304F0BDFF044642F210721D4D2B68DB
:10055000E31A934207D8BDE8F08104461A48A0FB8D
:100560000434A409F0E7194E194803F0D9F8DFF86C
:1005700080803178174F1848002914BF414639460A
:1005800003F014F971781548002914BF4146394623
:1005900003F00CF9D6E90112114803F007F9D6E986
:1005A0000312104803F002F907490F48A1FB043178
:1005B000890903F0FBF80D4803F0B2F82C60BDE8A0
:1005C000F08100BFA0170020D34D6210D817002083
:1005D000105700100C5700103457001048570010E7
:1005E00058570010745700108C570010A457001073
:1005F00008570010012400B583B003F07BF81748BA
:1006000003F08EF8164803F08BF8164803F088F8CC
:10061000154803F085F8FFF70BFEFFF729FE01A947
:100620000020ADF8044003F015FC104B10481C707E
:1006300003F018FA0F4803F073F80F4803F070F84E
:1006400000214FF0FF3003F08BFCFFF749FFFFF76D
:100650006DFF012001F00EF8F2E700BFC85700104F
:10066000F0570010045800102C580010D817002024
:10067000BD040010545800107C58001070B5124D85
:10068000124C134E84B017E09DF80F209DF80E30E9
:100690009DF80C10009228469DF80D2003F086F876
:1006A000636803A801336360FFF7FEFD0346094852
:1006B00003B9304603F034F8002003A904F0EEF942
:1006C0000028E1D104B070BDA0580010D817002058
:1006D000F0580010CC58001000487047BC5900106A
:1006E000004870475459001038B548B94FF441726A
:1006F000174B184D1B681B886B8016482A8038BD25
:1007000003281ED8124B53F82040204604F0A8FEC0
:10071000C0B21F28024628BF1F22A0B10D4D0023E2
:100720002946601E013310F8014FDBB29A4221F8CE
:10073000024FF7D80132520042F4407205482A8035
:10074000DDE7002038BD40F20232024DD5E700BFA0
:10075000B80C00206C0F002030B44FF480750B4BA8
:10076000C20053F8204003EB800084F0400402F103
:10077000804303F5203304F0C00200F5805400F5F7
:10078000405022605960056030BC704704800340CF
:100790000A4B002910B403EB800114BF0824002485
:1007A0000AB144F0040453F8203001F5805163404D
:1007B00003F00C035DF8044B0B60704704800340AA
:1007C00030B4002343EC440043EC400005254FF4D3
:1007D00080740B4BC20053F8201003EB800081F0B3
:1007E000400102F1804303F5203301F0C00200F51F
:1007F000805100F540500A605D60046030BC704775
:10080000048003400FB400B583B0049C074802F095
:1008100087FF3CB105A92046019102F031FE044852
:1008200002F07EFF012002F043FE00BFD05900100D
:10083000C8580010F8B5EFF3108C72B60F4ED6E81A
:10084000CF5F0124002DFAD1C6E8454F002DF6D127
:10085000BFF35F8F0124CF08C55D01F0070304FAE1
:1008600003F315EA030406D12B43C355C6E88F4FA3
:100870008CF31088F8BD1046FFF7C4FF0318002062
:10088000F8B5EFF3108C72B6204FD7E8CF5F012494
:10089000002DFAD1C7E8454F002DF6D1BFF35F8F89
:1008A0009A4222D80126D508455D02F0070406FACF
:1008B00004F4254200EBD20E0AD122E0D408055DF3
:1008C00002F0070406FA04F4254200EBD20E18D019
:1008D00001329342F2D24FF0FF300023C7E88F3F3E
:1008E0008CF31088984207DBF8BD0023C7E88F3FE0
:1008F0008CF310884FF0FF300029F5D00698FFF7F1
:1009000081FF2C4310468EF80040E6E703180020D4
:10091000044A1078431CDBB2172B88BF10231370D6
:10092000704700BFC80C002000B5064B83B00146DD
:10093000009318221F230448FFF7A2FF03B05DF8BD
:1009400004FB00BFE0590010E0110020024A1368C8
:1009500043F000531360704708E000E00021044BAF
:1009600003F12002C3E88F1F01339342FAD170478D
:10097000F81700204FF08030034B04491A46043327
:100980008B421060FAD1704700E400E034E400E0EC
:10099000012300F01F029340400941B1800000F1A3
:1009A000604000F56140C0F8803103607047024A42
:1009B000203042F82030704700E100E00123064A71
:1009C000410952F8212000F01F0003FA00F0104204
:1009D00014BF18460020704700E100E0F8B50D464E
:1009E000EFF3108772B6124ED6E8CF2F0123002AFC
:1009F000FAD1C6E8423F002AF6D1BFF35F8F0D4B14
:100A000000F110049B680C4A53F82430934203D041
:100A1000994201D001F010F9064B9B6843F824502D
:100A2000BFF35F8F0023C6E88F3F87F31088F8BDC0
:100A30000118002000ED00E01D0100102DE9F04F2D
:100A400083B0074615460191EFF3108A72B6DFF8BE
:100A5000E091D9E8CF2F0123002AFAD1C9E8423F1B
:100A6000002AF6D1BFF35F8F6B4E96F90020002A63
:100A7000C0F2AA80694C02EB420304EB830399792C
:100A8000674B31709B68103753F8270002EB420622
:100A9000031B2F2B04EB86084FEA86062FD9614BE8
:100AA000984240F0AF80604BB21C2244043B9B1A3A
:100AB000C3F34A036FEAC3434FF421406FEAD343C1
:100AC0004BF60151FF22A053A8F80230019B48F0D9
:100AD000010088F80750C8F80830A8F8041088F812
:100AE00006204F4B9B6843F82700BFF35F8F00231E
:100AF000C9E88F3F8AF3108803B0BDE8F08F20F07B
:100B00000101CB79AB4237D84FF4214B4AF6AA20EA
:100B1000454BB21CA3F1040CA318ACEB0303321D2C
:100B2000DFF810C104EB020EC3F34A030A1F43EAC5
:100B30000C03A2EB0E0224F806B0C2F34A02A8F896
:100B400002303A4E019B42EA0C02C8F80830A8F87D
:100B5000042003460A46121B524153431B0D88F8DA
:100B6000075088F8063048F001000E60B9E79CF89D
:100B700007C0AC452DD9714691F9063003EB430C03
:100B800004EB8C0C002BE646F1DA4BF6015C01F12C
:100B9000040BA8F1040EAEEB0B0ECEF34A0E6FEA77
:100BA000CE4E6FEADE4EDFF884B08A71A1F804E021
:100BB00044F806B088F80630019BA8F804C088F80D
:100BC0000750C8F808308CE701F036F896F9002095
:100BD00050E7B1F804C001F1040B5FEA4C5C14D497
:100BE0006FF0070E4FEA6C5C0CF1020CAEEB060ED8
:100BF0000BEB4C0CAEEB040EF444CCF34A0C4CF46F
:100C0000604CC6E701F018F84DE70CF5FF1C0CF539
:100C1000FF5C0CF11F0CE3E7F7170020CC0C002061
:100C200000ED00E01D010010FC0C00200148804791
:100C30000118002000E0FFFF2DE9F04F83B0EFF333
:100C4000108972B6754DD5E8CF2F0123002AFAD14D
:100C5000C5E8423F002AF6D1BFF35F8F704B00F129
:100C600010079A686F4B52F827409C4241D08C4243
:100C70004DD06D4EA31B2F2B3BD84FF0010A4FEAEE
:100C800050184FEA880808F1604808F56148D8F81C
:100C9000003000F01F000AFA00FA0AEA030BC8F855
:100CA00080A0BFF35F8FEFF30580C0B288BB24F054
:100CB000010CDCF808E0714500F0A6800B46714697
:100CC0009E4603E099688E452FD09C469CF90620ED
:100CD00002EB4203002A06EB8303F3DA73468B42EE
:100CE0008E4668D0BBF1000F1CD0C8F880A1C8F8B0
:100CF00000A04B4B9B6843F82740BFF35F8F002356
:100D0000C5E88F3F89F3108803B0BDE8F08F1C461B
:100D1000EFE78742CBD0CDE9000100F08DFFDDE9A0
:100D20000001C4E7C8F880A0E3E702EB420206EB4B
:100D3000820292F9061000293EDB01EB410206EB2C
:100D4000820292F90600D2F808E092F807C0987182
:100D500092F90600C3F808E0002883F807C04FEABC
:100D6000410E3FDB9088400504D500F5FF1000F5EB
:100D7000FF501F306FF007024FF00C0C009204225E
:100D80001CFB01224015023002EB40026FF007000D
:100D90003244C01A0244C2F34A0242F46042234879
:100DA0000EEB010C06EB8C0690F800C09A800170E7
:100DB00086F806C096E76346B8B9FF214BF60152A4
:100DC0008CF80610ACF8042018484AF6AA2290F8CD
:100DD00000C01946891B49414A43120D83F806C0D9
:100DE00002707FE74BF60152D9E7114A1148D21A37
:100DF000083AC2F30A316FEA01516FEA115140EA31
:100E000052029980DA806DE79CF90610634600294A
:100E100093DA0028E9D1034CD6E700BF011800207F
:100E200000ED00E01D010010CC0C0020F7170020A1
:100E3000060D002000F8FFFF2DE9F041EFF30584D7
:100E4000E4B2EFF3108772B6214ED6E8CF2F01231C
:100E5000002AFAD1C6E8423F002AF6D1BFF35F8FDD
:100E6000DFF87CC040F0010EDCF808104AF6AA2238
:100E700051F824800346174D5B1B5B415A43120D0A
:100E8000F04551B214D02A46002392F906400C32A4
:100E90008C4213D00133042BF7D10F4B00221C7866
:100EA00019708471C6E88F2F87F31088BDE8F08130
:100EB000DCF80830094A43F82420EEE7FF244BF61B
:100EC000015203EB430305EB83039C719A80E4E733
:100ED00001180020CC0C0020F71700201D01001085
:100EE00000ED00E0014B194401607047F817002045
:100EF00010B50446FFF70CFD01462046FFF7F2FF50
:100F0000FF232371BFF35F8F10BD00BF10B50446F0
:100F1000FFF7FEFC01462046FFF7E4FFFF23A38016
:100F2000BFF35F8F10BD00BF38B5084C084DAC4211
:100F300007D2236820462BB10834FFF7E7FFAC4205
:100F4000F7D338BDFFF7D4FF0834F0E7640D002075
:100F5000740D002010B504460120FFF7E5FC034B9B
:100F600018442060BFF35F8F10BD00BFF81700204A
:100F70000E4B10B41A68EFF3108172B6D2E8CF4F5F
:100F80000120002CFAD1C2E8440F002CF6D1BFF3A7
:100F90005F8F00221B68C3E88F2F81F3108840BF4A
:100FA000002000215DF8044B704700BFD4170020DB
:100FB0002DE9F04F91B0EFF30583DBB2103B9A08B7
:100FC0000EBFB749B74901220F46012103F00306BE
:100FD000B54B06EB820253F822B007F5415001FAF7
:100FE00006F3BA46CDE900450796069343603AE01A
:100FF000BBF80430190440F1BD809BF80630002B8B
:1010000040F01581BBF90820002AC0F24481DBF8CA
:10101000143002EB420203EBC202D2E902677B1CEE
:1010200008BFB6F1FF3F0FD0079BDAF828000AEBA4
:1010300083021369311A1B1A994204D3DAF820305B
:1010400006990B4200D11661504600F08DFB331A11
:10105000029367EB01030393DDE90234012B74F182
:10106000000380F21881BBF90860069B002ECAF8C5
:101070003C30BDDBDBF8147006EB460308935046AA
:1010800007EBC303D3E902891C46099300F06CFB0C
:10109000B0EB080061EB090104900591DDE9041251
:1010A000002972F10001A3DBB8F1000F79F1000112
:1010B000C0F2FE807D4B22699A42099B00F0268196
:1010C0005988BBF9080089B241EA00405969904744
:1010D00002460B4652EA030100F0EA80002A73F14F
:1010E000000180F20881B8EB020069EB0301089B64
:1010F00037F93380099BB8F1000F9860D960FFF68B
:1011000077AFDBF8143008EB480C03EBCC0CDCE9D0
:101110000242041B61EB02020B920A94DDE90A45CC
:10112000002C75F10002FFF663AFBE46ABF80880F5
:10113000DDE90C7809E09468071BD46861EB0408CA
:10114000002F78F1000409DB9446BCF9009009EB0C
:101150004902B9F1000F03EBC202ECDA089BCDE9BA
:101160000C782EF83390ACF80060BBF8043019040A
:101170003FF543AFDBF81030EFF3108272B6D3E8DF
:10118000CF0F01210028FAD1C3E8401F0028F6D173
:10119000BFF35F8F4FF6FF71BBF80480DBF81030B0
:1011A000ABF804100FFA88F80021C3E88F1F82F310
:1011B00010888845FFF621AFDDE900450BF10801F5
:1011C00050468A46DBF81460BBF9083008EB480942
:1011D00006EBC902002BD446D2E9021E16DB5F469D
:1011E000009004E036F93B309446002B0CDB03EB17
:1011F000430B06EBCB0290680C1AD0686EEB00052F
:10120000002C75F10000EDDABB460098ACF80080C8
:1012100036F9398026F83930B8F1000FD4DA9BF866
:1012200006308246CDE90045002B3FF4EBAE0023AB
:101230008BF80630BBF908300BF1080E5A1C2AD087
:10124000DDE900451A46DBF8146002E08646591CC9
:101250001CD003EB430106EBC10047889C463F04CA
:1012600036F93130F2D54FF0FF374FF0FF38624595
:10127000C0E90278EBD0AEF80030BBF80800624657
:1012800026F83100591CABF808C0E2D1002ACDE99C
:101290000045BFF6BCAE40BF11B0BDE8F08F00BF47
:1012A00000000B4000800B40AC170020B10F001075
:1012B000089CDBF8103037F83420ABF80820EFF347
:1012C000108272B6D3E8CF0F01210028FAD1C3E80B
:1012D000401F0028F6D1BFF35F8FBBF80230DBF868
:1012E000101027F834300023ABF80260C1E88F3FBC
:1012F00082F310887CE65046CDE90E2300F034FAE4
:10130000DDE90E23801843EB0101F0E65969084638
:101310000A690E9190470028CAD00E99D1E900239E
:10132000D8E600BF2DE9F0438046914683B0C16006
:101330001E460F46FFF7ECFA4FF050424FF6FF748F
:10134000204B88F8009012681844B3B288F8012046
:101350005A1EC8F81000A8F80A30A8F80220A8F809
:101360000840A8F8044066B1D8F8145006EB4603CC
:1013700005EBC30325F8184B9D4204F10104A4B208
:10138000F8D1114B114A9F420CBF042300234B4458
:1013900042F8238012D04846012505FA09F43C6240
:1013A0000B490190FFF71AFB29460198FFF7F0FA65
:1013B00007F501573C6003B0BDE8F08309F1040074
:1013C000EAE700BFF817002000800B40AC170020B0
:1013D000B10F001010B50C4C23692BB1BDE81040C3
:1013E0000A210A48FFF77EBD0321094800F0AAF947
:1013F0002046074910230322FFF794FFBDE8104061
:101400000A210248FFF76EBD140D0020D4170020FA
:1014100000000B4001462DE9F04100699846EFF3CA
:10142000108E72B6D0E8CF5F0124002DFAD1C0E84B
:10143000454F002DF6D1BFF35F8FB1F902504E69D1
:1014400005EB4504E700002DA8BFF05B4FF0000C52
:10145000A8BF488006EBC4040869C0E88FCF8EF3AC
:101460001088654531DB6088069B0130C0F30E00B3
:10147000012838BF01202361079B60806361C4E9B4
:10148000022840EA05400B69EFF3108272B6D3E8F8
:10149000CFEF0124BEF1000FF9D1C3E84E4FBEF1EA
:1014A000000FF4D1BFF35F8F8C880B69F4538D80EC
:1014B000C3E88FCF82F310880122CB68097803F547
:1014C00001538A405A60BDE8F0814FF0FF30FAE7DF
:1014D0002DE9F04F81B09DF830808146DDE90AABFF
:1014E00014461D46B8F1000F08D100F045F9261A40
:1014F00065EB0107002E77F1000309DB22462B463E
:101500004846CDE90AAB01B0BDE8F04FFFF782BF16
:10151000404601B0BDE8F08F4289B2EB214F37DD84
:1015200042690B1403EB430302EBC30370B402697B
:10153000EFF3108472B6D2E8CF6F0125002EFAD1F6
:10154000C2E8465F002EF6D1BFF35F8F5A8889B29A
:1015500092B28A4207D003690020C3E88F0F84F358
:10156000108870BC704742F400425A800123002268
:1015700001698371C1E88F2F84F31088C2680178F4
:1015800002F5015203FA01F1184670BC5160704730
:10159000002070472DE9F043861F41F1FF37B94223
:1015A00008BFB04285B03CBF0027002604460D4668
:1015B00000F0E2F8B6EB000867EB0109B8F1010FA3
:1015C00079F1000306DA2046294605B0BDE8F0436C
:1015D00000F010B94FF00008174B32460093CDE9E8
:1015E00001883B461548FFF773FF4045EBDB40465B
:1015F000BC46134A134F7B6A9C4504D8B96AB14272
:10160000E1D29C45DFD11368EFF3108172B6D3E8C5
:10161000CF8F5FF0010EB8F1000FF8D1C3E848EFAB
:10162000B8F1000FF3D1BFF35F8F1368C3E88F0FDA
:1016300081F3108820BFDEE7710F0010140D002029
:10164000D417002000000B40F8B504460D4600F00A
:1016500093F8261845EB0107002E77F10003BCBF75
:101660004FF0FF366FF0004730463946BDE8F8408E
:10167000FFF790BF4FF47A73A0FB0301FFF7E4BFBD
:101680002DE9F04F07460E4685B0EFF30584E4B22E
:101690003CB1294B586A88421FD2002005B0BDE8F2
:1016A000F08F264DD5F80CB095F800A0584600F004
:1016B0005BF800230AF1040A5BF82A20B7EB000864
:1016C000A2EB000266EB0109904579EB030311DB05
:1016D00020BF194B586A8642DFD89B6ABB4203D3AE
:1016E000012005B0BDE8F08F801B18BF012005B0B8
:1016F000BDE8F08F124B284600933A463346CDE9B9
:101700000144FFF7E5FE011E0B4B09DD5A6A9642C4
:101710000FD89B6ABB420AD30848FFF7FDFE064B71
:10172000586A8642B9D89B6ABB42D9D2DCE7964256
:10173000F2D120BFF0E700BF00000B40140D0020E5
:10174000710F001010B4054B054C064AA04214BF9F
:101750001846581C5DF8044BFFF76CB8E4110020E4
:1017600000800B40FC590010416A0B46826A416AB6
:101770008B42FAD110467047044A1346516A0A4612
:10178000986A596A9142FAD1704700BF00000B4035
:101790002DE9F00304460D46154B1A465B6A1946BF
:1017A000906A536A8B42FAD122186B414FF00008BD
:1017B0004FF0000924BF4FF001084FF0000958EA2C
:1017C000090118BF4FF0FF33104618BF18460849EB
:1017D0004A6A9A42FCD39A4207D1054A02E0516A0A
:1017E000994202D1916A8142F9D3BDE8F003704772
:1017F00000000B40074A536A9942FCD8994207D12E
:10180000044B02E05A6A914202D19A6A8242F9D3A9
:10181000704700BF00000B4038B5046BE30701D4EC
:10182000204638BD40F2013200F540531A63436A46
:10183000856A062005EB831500F0EEF8054BAD0236
:10184000A3FB0030C00AB5FBF0F00021FFF7A0FFBA
:10185000204638BD757B2B8F38B5044606200D46D3
:1018600000F0DAF8C300B3FBF5F10131CB0908D081
:101870004FF6FE7293421BD900234FF6FF72104DB4
:1018800001E04025012262622046A362FFF7C4FF07
:1018900023460246002153F82C0F062003F58053FF
:1018A0001960226300F0B8F88000B0FBF5F038BD95
:1018B000C1F345011A4601EB83150B46E3E700BF70
:1018C000C0FF3F0070B5044606200D4600F0A4F8A6
:1018D00060B3174A174994420CBF4FF000624FF0B3
:1018E0008062154B15480A601A60036832EA0303E8
:1018F000FBD10F4B4FF48076E31AB3FA83F3104A0F
:1019000029465B09204622F81360FFF7A5FF23460E
:1019100040F20135032153F82C2F82F0700202F0BF
:101920007E0203F580531A602563A16470BD00BF79
:1019300000800740002002400030024008000240C2
:10194000181800202DE9F04100EB4004A40004F138
:10195000804404F580346568069F061FBD42F6B2D8
:1019600038BF6760012E904629D94FF4006EDFF82A
:1019700090C004F54055C5F800E05CF82050A5B9CA
:10198000256804F5805E85EA481202F0E002012E27
:10199000CEF8002027D94FF400624CF8203004F52F
:1019A00000531A606760BDE8F081DCF81420B2FBD8
:1019B000F5F5013505EB4505033DFDD2E0E70129CD
:1019C000D3D1032604F540552E60A568EA07FCD55F
:1019D000256804F5805E85EA481202F0E002DFF82F
:1019E00020C0CEF80020012522688D40514001F032
:1019F0000301CEF80010A2682A42FCD0CBE700BF5A
:101A0000E811002010B54FF4803482B00094FFF745
:101A100099FF02B010BD00BF014B53F82000704782
:101A2000E81100202DE9F0414FF4803615460122DF
:101A30000F460446DFF85C8082B01146434605201D
:101A40000096FFF77FFF3B46224601210F48009595
:101A500000F062F805FB07F1B4FBF1F4002202216B
:101A600004200B4B0096FFF76DFF23460022012157
:101A700005200096FFF766FF43460222002106205C
:101A80000096FFF75FFF02B0BDE8F081000005405F
:101A9000001BB700006CDC022DE9F0434FF4A07886
:101AA000DFF86CE0DFF86C9008F1FF38B8F10F0F49
:101AB00029D00EF53727CE4507F5D8771ED84FF039
:101AC000070C65460CFB0CF403E0013DA4EB0C0491
:101AD00011D0B7FBF4F68642F7D104FB1076002E46
:101AE000F3D10120094C04FB08F40C60C2F800C0DB
:101AF0001D60BDE8F083BCF1010CE2D1AEF53B5EA8
:101B0000AEF1200ED0E70020F3E700BF001BB700C6
:101B100070F72E0050F80C0070B41E4D039CB5FBFE
:101B2000F1F5B2FBF5F205682403002D44EA034306
:101B300020DB194D194EA8420CBF4FF400454FF45D
:101B40008045174C3560A6F5FF56183E2560346871
:101B500035EA0404FBD1212500F54054043401602A
:101B6000826025600268002AFCDA0822C3602260D5
:101B700070BC7047046804F03F048C42D9D184687B
:101B8000C4F30B049442D4D1C46804F4EE249C4200
:101B9000CFD1EDE7001BB7000080054000200240D8
:101BA00000300240012300EB4000800000F1804043
:101BB00000F5841041600360704700BF16231B8846
:101BC000002242E800F2520201D4102118470421F9
:101BD000184700BF034A1368002BFCD0BFF35F8F88
:101BE000704700BF28080E400021044B044ABFF391
:101BF0005F8F43F8041B9342F9D170470C080E40E5
:101C00002C080E40084B30B44FF42A654FF48D7405
:101C10001A46064906481D60DC6008605368002BC0
:101C2000FCDA30BC704700BF0080044000A00440D4
:101C300000B0FA00704700BF08B50148FEF7E2FDAA
:101C4000205A001038B5084D084B9D420BD2013B7D
:101C50005B1B23F0030304332C461D4454F8043B60
:101C60009847AC42FAD138BD60550010A05500101D
:101C700038B5084D084B9D420BD2013B5B1B23F04E
:101C8000030304332C461D4454F8043B9847AC42EC
:101C9000FAD138BD8C550010A0550010074B30B458
:101CA0001946074C074D0848084A25600360136829
:101CB00031EA0303FBD130BC704700BFF6FFF303EA
:101CC000002002407F3BEFEF00300240080002405E
:101CD000044BDB6CB3F5004F03D14FF48022024B71
:101CE0001A607047000011504C2011504EF6885376
:101CF00003F160431968034A0A431A6010EE300486
:101D0000704700BF030330006FF06041044B054A89
:101D100019601368DB4333F06043FAD1704700BFAA
:101D2000003002400800024010B545F25320FFF792
:101D300045FFBDE8104003460420184710B545F2A2
:101D40005320FFF73BFFBDE8104003460120184732
:101D5000FEF704BE10B5054B054C18464FF48872CB
:101D6000A16803F0B7FAA06010BD00BF000000201A
:101D700000ED00E0002370B52C4C82B0C4F8843034
:101D8000FFF740FF01212246294B1960536C012BBC
:101D9000FCD10321274A254B11609C6B012CFCD1FF
:101DA000052502262B462146234A24480096FFF7A4
:101DB000B3FE2B462146224A22480095FFF7ACFE8F
:101DC000314600220420204BFFF71CFE2846214606
:101DD00000221E4BFFF716FE0022082011461C4B66
:101DE000FFF710FE002209201146194BFFF70AFEEB
:101DF000002206201146154BFFF704FE0022134B6C
:101E000011460720FFF7FEFD0420FFF705FE002422
:101E1000104DA5FB0035AD0CE0B229460134FFF7AB
:101E2000C1FE062CF8D102B070BD00BF0000014019
:101E30003C30014030300140002F6859000005401F
:101E4000008C864700800540001BB70080D1F00859
:101E5000006CDC0283DE1B4386B003B451FC080433
:101E6000CDE9020151FC0904CDE9040151EC0A0459
:101E7000CDE9060103BCF047BDE800504EEC00C4BC
:101E8000BDE800504EEC01C4BDE800504EEC02C469
:101E900000BD000000B5FFF7DFFF02E010FE30F4E8
:101EA000F8D441EC100443EC112400EE010410EED0
:101EB000010480EE200451EC1004704700B5FFF7D8
:101EC000CBFF02E010FE30F4F8D441EC100443ECF8
:101ED000112400EE010410EE210480EE200451ECE8
:101EE0003004704700B5FFF7B7FF02E010FE30F492
:101EF000F8D410B541EC100443EC112451EC040467
:101F000053EC0524A0FB024C5FF0000EE0FB03CE77
:101F1000E1FB02CE4CEC20440024E1FB03E444EC62
:101F200030E480EE200451EC5004BDE810407047CE
:101F300000B5FFF791FF02E010FE30F4F8D441EC59
:101F4000100443EC112451EC2104A0FB01126FEAB0
:101F5000820252FB100052FB12F252FB1000A0EB67
:101F6000D07C53EC04245CFB13F153EC1524A1FB4F
:101F7000022001FB030053EC4424A2EB000050FBC1
:101F80001CF24FEA111312EB017043EBE27140EACD
:101F9000515020EA915020F0070053EC7524A0FB2B
:101FA000023C53EC752400FB03CC01FB02CC53EC48
:101FB0000424ACEB824C40EA5C70A0F1010041ECDF
:101FC000400480EE200451EC7004704700B5FFF728
:101FD00043FF02E010FE30F4F8D440EC700400EE51
:101FE000010410EE210480EE200451EC300470470F
:101FF00000B5FFF731FF02E010FE30F4F8D440ECFA
:10200000600400EE010410EE210480EE200451EC87
:102010003004704700B5FFF71FFF02E010FE30F4F8
:10202000F8D441EC800400EE010410EE010480EECF
:10203000400410EE1304704700B5FFF70DFF02E0F7
:1020400010FE30F4F8D441EC800400EE010410EEF0
:10205000010480EE400410EE3304704700B5FFF732
:10206000FBFE02E010FE30F4F8D441EC100443EC27
:10207000112400EE010410EE3004C0F3007070472C
:1020800000B5FFF7E9FE02E010FE30F4F8D443ECAF
:10209000102441EC110400EE010410EE30F48CBF6A
:1020A00001200020704700BF00B5FFF7D5FE02E019
:1020B00010FE30F4F8D443EC102441EC110400EE8F
:1020C000010410EE30F42CBF01200020704700BF47
:1020D00000B5FFF7C1FE02E010FE30F4F8D441EC89
:1020E000100443EC112400EE010410EE30F42CBF78
:1020F00001200020704700BF00B5FFF7ADFE02E0F1
:1021000010FE30F4F8D441EC100443EC112400EE3E
:10211000010410EE30F48CBF01200020704700BF96
:10212000704700BF2DE9F84F9A460D9B17469A0756
:1021300005468B46DDF8288011D1DDE90B3293424C
:102140000DD213463C460B9A9E1A3E4422465346F5
:10215000594620200134A847B442F7D100E03E465A
:102160000B9B73B108EB030406EB0409A9EB040213
:1021700014F8010D53465946A8474445F6D10B9B28
:102180001E440D9B9B0719D50C9BF41BA34215D92C
:102190009846E2195346594620200134A847444541
:1021A000F7D30C9B0C9A013B3B44C7F101079B1BE7
:1021B0003744974288BF002301361E443046BDE8AD
:1021C000F88F00BF2DE9F04F0F9F9DF82C90BD07B1
:1021D0000E9EDDE909E4DDE90C8C2AD4002E69D1DC
:1021E000644507F0010B80F0C5801F2C88BF2024B8
:1021F00000F2C080651E4FF0300A754401E0202CCB
:1022000004D00134A44505F801AFF8D8BBF1000FA4
:102210000FD0B4420DD21F2C5DD8651E4FF0300A8E
:10222000754401E0202C56D00134B44205F801AFCA
:10223000F8D1FD0630D57D0557D4002C51D1B8F129
:10224000100F7CD0B8F1020F00F08F8030248EF890
:1022500000400124B9F1000F23D02D250EF80450C1
:102260000134CDE90B67CDE909E4BDE8F04FFFF794
:1022700059BFBD066AD4202CF3D00EEB040C0134F8
:1022800078258CF80050202CEBD04FF0300C0EEB62
:10229000040585F800C00134202CE2D0B9F1000F0C
:1022A000DBD17D0733D43D07DBD520250EF8045064
:1022B0000134D6E717F0010B23D0B9F1000F32D16A
:1022C00017F00C0F2FD16445A3D21F2C92D9202ECA
:1022D00001D82024ADE7FD064FF02004C1D57D05CF
:1022E00003D4A44521D0A6421FD0B8F1100FC0D00E
:1022F000B8F1020FC7D1202CB3D00EEB0405013486
:1023000047E0644595D21F2C7FF674AFE1E72B259B
:102310000EF804500134CDE90B67CDE909E4BDE8BE
:10232000F04FFFF7FFBE013ECDE7651E87D0B8F145
:10233000100F24D0B8F1020F2AD02C46A5E7BC0616
:102340000ED478248EF8004001249EE7202C88D0FB
:102350004FF0580C0EEB040585F800C0013492E7ED
:1023600058248EF8004001248FE762248EF8004044
:1023700001248AE7BBF1000F08BF002659E717F0D8
:10238000200FA4F10204E3D10EEB040C2C4677E7F6
:1023900075444FF0620C85F800C074E72DE9F04FEA
:1023A00093B09DF874401C9D1E9EDDF884A0099496
:1023B0002DB92AF010041AF4806FA24634D11AF015
:1023C000200F0DF1280B14BF4FF037094FF05709BC
:1023D000D846002702E0202F15D07546B5FBF6FE43
:1023E00006FB1E5C5FFA8CF4BCF1090F04F1300CA3
:1023F0008ABF4C445FFA8CF4E4B2B54207F101079E
:1024000008F8014BE7D2209CCDF818A005941F9C3A
:10241000CDF800B0CDE90364099CCDE90174FFF764
:10242000D1FE13B0BDE8F08F2F460DF1280BEAE77F
:102430002DE9F04F2DED048B93B09B46DDE920454F
:10244000DDE924899DF8883008EE100A089354EAE3
:10245000050308EE901A09EE102A06D1289B289A47
:1024600023F010032893530540D4289B002613F033
:10247000200F0AAB14BF4FF0370A4FF0570A1F4620
:10248000099303E0202E17D004460D4642464B46E2
:102490002046294603F014F8D2B2092A02F130038B
:1024A0008ABF5244DAB2D2B24D4508BF444506F164
:1024B000010607F8012BE5D2289B19EE102A069396
:1024C000279B18EE901A0593269B18EE100ACDE96B
:1024D0000383089BCDE90163099B00935B46FFF7EB
:1024E00071FE13B0BDEC048BBDE8F08F0AAB002683
:1024F0000993E1E700B9704701F002B910B1D1E9E1
:1025000000311847704700BF2DE9F04F2DED048BC7
:1025100091B0DDE91E8904460D4693469A46404631
:102520004B4649464246FFF79DFD209B0A93219B5F
:102530000B93229B0793002840F0C6804FF0FF3298
:10254000404649466A4BFFF7DBFD002840F0BC805F
:102550004FF0FF326FF4801340464946FFF794FD79
:10256000002840F0B1800022002340464946FFF792
:102570008BFD002840F0A781CDE90889DDE908013D
:10258000079ACDE90C0112F480630F930A9B08BFF0
:1025900006230A9350EA010340F0AC8012F4006075
:1025A00000F08E8100230E930A9B0E9900268B4229
:1025B0000846D2BF0023581A00F1FF330A93079B45
:1025C0000E9643F4806307930B9BB34288BF9F1B17
:1025D000079B98BF002713F002030F9302D0002E31
:1025E00018BF00270E9B3BB1DDE90801DDE90C2394
:1025F000FFF7A2FCCDE9080100220023404649462E
:10260000FFF742FD30B1DDE90801024601F1004368
:10261000CDE908239DED087B079B0A9A23F400630C
:102620000397029204938DED007B53465A46294648
:10263000204600F07DF90746002E3FD0079B3A4622
:1026400013F0200F14BF4520652053462946A047AC
:102650004FF0050C00200A210E9B7A1C0E9F002BC8
:10266000B8BF5B42FF0F013ECDE90210CDE9003754
:10267000294653462046CDE9046CFFF78FFE0F9B99
:102680000746DBB10B9BA0EB0B06B34216D998466D
:102690000BEB06025346294620200136A047B045E1
:1026A000F6D80B9A0BF1FF331344CBF1010BDB1B74
:1026B000BB445A4538BF002301371F44384611B088
:1026C000BDEC048BBDE8F08F079B5A4622930B9B11
:1026D000294621930A9B204620935346CDE91E8923
:1026E00011B0BDEC048BBDE8F04F00F021B900BF84
:1026F000FFFFEF7FDDE90C67C7F30A50A0F2FF3060
:10270000FFF768FC86A3D3E90023FFF7EFFB86A35E
:10271000D3E90023FFF7C2FB41EC170BC7F3130CFF
:102720004CF07F5100223046774B41F4401157EC7A
:10273000176BFFF7C7FB68A3D3E90023FFF7D6FBAE
:1027400002460B4630463946FFF7A8FBFFF766FC0A
:102750000E90FFF73FFC62A3D3E9002306460F4625
:10276000FFF7C4FB0022694BFFF798FBFFF756FC0D
:102770005DA3D3E90023844639463046CDF830C006
:10278000FFF7B4FB06460C980F46FFF723FC58A34F
:10279000D3E90023FFF7AAFB02460B463046394631
:1027A000FFF790FB02460B4643EC192BFFF79EFB0D
:1027B00053EC192B06460F4651EC190BFFF76EFB35
:1027C000002241EC180B524B30463946FFF7B4FB60
:1027D0000022504BFFF762FB02460B46304639465B
:1027E000FFF7AAFB00224C4BFFF758FB02460B46B3
:1027F00030463946FFF7A0FB53EC192B06460F462F
:1028000000204FF08041FFF75DFB02460B4630464B
:102810003946FFF743FB02460B4651EC180BFFF716
:102820008BFB00223D4BFFF739FB0C9E002206F28A
:10283000FF363305FFF75AFB06460F46DDE9080170
:1028400032463B46FFF720FC00282DD1CDE90C672E
:102850000E9B6333C72B079B34BF042605261B053D
:102860007FF5B2AEDDE90C2313433FF49DAE22A306
:10287000D3E90023DDE90801FFF72EFC48B120A3CE
:10288000D3E90023DDE90801FFF7FEFB00287FF410
:102890008BAE0A9B002B3FF497AE0F9A002A3FF4B1
:1028A00093AE013B0A938FE61A4B3046394600221D
:1028B000FFF742FB0E9BCDE90C01013B0E93C7E7EE
:1028C00004260E9080E609F10043CDF8208009939C
:1028D00054E600BFAFF3008061436F63A787D23F28
:1028E00071A379094F930A401655B5BBB16B0240ED
:1028F000EF39FAFE422EE63F2D431CEBE2361A3F3B
:102900000000000080842E410000F83F0000E03FFE
:1029100000002C4000002440000018400000F03F60
:10292000FB799F501344D33FB3C8608B288AC63FBE
:102930002DE9F04F2DED028B86468C461C46154640
:1029400095B0DDE920673046394632463B46CDE951
:102950000954CDE907ECFFF785FB229C002840F0E5
:10296000E1814FF0FF326FF4801330463946FFF7B4
:102970008BFB002840F010814FF0FF323046394683
:10298000C54BFFF7BDFB002840F0DF80BEA3D3E9B5
:10299000002330463946FFF7B3FB002840F0C380E0
:1029A000BBA3D3E9002330463946FFF76DFB00286F
:1029B00040F0B9800022002330463946FFF764FB1F
:1029C000002840F0DE800B90249B302213F4806FAF
:1029D00008BF06240CABA246A4F1200106E00AF1D0
:1029E000FF3A8A4503F8012B00F03B81BAF1090F49
:1029F000A4EB0A05F3D839463046FFF70FFBA74B87
:102A0000044603EBCA0393ED007BB0EE478AF0EE79
:102A1000678AFFF7DFFA02460B4630463946FFF772
:102A200051FA53EC182BFFF761FA89468046FFF7FD
:102A300007FB8346FFF7E0FA02460B46404649464D
:102A4000FFF740FA0022964B80468946FFF758FB75
:102A5000002800F0F7800BF1010B5846FFF7CCFA85
:102A600002460B4651EC180BFFF722FB10B14FF05A
:102A7000000B0134BAF1000F40F0A1802046FFF7AF
:102A8000A9FA02460B4630463946FFF71BFA0022E8
:102A9000834B06460F46FFF7F7FA40B9002230464F
:102AA00039467F4BFFF72CFB002800F01E816A1E81
:102AB0000CAB7C491A44202D4FEAE47300F09A8055
:102AC00081FB0460C3EBA00303EB8300A4EB400491
:102AD000303402F8014F01351C46002BEBD1249B0A
:102AE00003F00303012B00F01881202D09D00B9B6C
:102AF000002B00F0B8802D2214AB2B4403F8202CBF
:102B00000135249BDDE907010393239BCDE90153A4
:102B10000CAB0093DDE90923FFF704FB15B0BDEC16
:102B2000028BBDE8F08F249BCDE90067DDE907014A
:102B30000493239BCDE90243DDE90923FFF7E4FC7D
:102B400015B0BDEC028BBDE8F08F249B564C03F012
:102B50000403002B554B08BF0325DDE907011CBF0B
:102B60001C460425249A239B03920293CDE9004539
:102B7000DDE90923FFF7D6FA15B0BDEC028BBDE8FD
:102B8000F08F3B46324600200021FFF79BF90123DE
:102B900006460F460B9317E70425249B444C0393EA
:102BA000239BCDE90045DDE907010293DDE9092317
:102BB000FFF7B8FA15B0BDEC028BBDE8F08F681EC8
:102BC0000CAB3C4F18440FE0A7FB0B32D20802EBD2
:102BD0008203ABEB43033033BBF1090F00F8013F35
:102BE0006AD9B24693460D46202D0AF1FF3605F10B
:102BF0000101E9D1249B03F00303012B81D1239B25
:102C0000002B3FF47EAF0B9B1BB9249B13F00C0FE2
:102C100002D0239B013B2393239BAB427FF665AFFE
:102C2000202D0DD030226B1E0DEB02010B44239999
:102C300001358D4203F8012F3FF457AF202DF7D116
:102C400020255EE7404649460022154BFFF71CFA57
:102C500000287FF40FAFBBF1000F52D10BF1010B35
:102C600008E72025C7E6249B5A0743D4249B1B076B
:102C70007FF547AF202214AB2B4403F8202C0135FD
:102C80003FE700BFAFF300800000000065CDCD41FD
:102C90000000000065CDCDC1FFFFEF7FE05A0010BE
:102CA0000000E03F67666666C85A0010CC5A001004
:102CB000D85A0010CDCCCCCC202927D00B466EB1F1
:102CC00030200DEB000215440133202B05F8010FD5
:102CD0002DD0DA430A4412EB0A0FF5D12E2114AAA3
:102CE0001A4402F8201C5D1CE1E6E1077FF5DFAE27
:102CF0000134DCE62B2214AB2B4403F8202C0135E5
:102D0000FFE61BF0010F3FF4B5AEA7E7249B0D468D
:102D100003F00303012B7FF4F4AE239B002B3FF45D
:102D2000E4AE70E7249B0325074C039338E7249A0D
:102D300002F00302012A01D01D46E2E6239A1D4655
:102D4000002A7FF460AFDCE6D45A00102DE9F04F82
:102D5000CC4D1E78CC4F91B0B1F1000A1C46DFF883
:102D60002CB32F60134618BF83461A9D002E00F027
:102D7000B8824FF00008304617460AE042463B460C
:102D8000514608F101080134D8472078002800F0A6
:102D900026812528F2D10023621C144612F8010B6B
:102DA000A0F1200110290AD8DFE801F03C09093917
:102DB0000909090909090936093309093000A0F18F
:102DC0003002092A40F2ED802A2800F01681002600
:102DD0002E2800F0F5804FF00009A0F16802122AB9
:102DE0002AD8DFE812F0550129004A012900220003
:102DF0002900290029002900290029002900D900DB
:102E000029002900290029002900D90043F00103E5
:102E1000C3E743F00203C0E743F00403BDE743F018
:102E20001003BAE743F00803B7E760786C2800F0B6
:102E3000538243F480730134A0F12502532A9DD8B4
:102E400001A151F822F000BFD13000107D2D0010FB
:102E50007D2D00107D2D00107D2D00107D2D00108A
:102E60007D2D00107D2D00107D2D00107D2D00107A
:102E70007D2D00107D2D00107D2D00107D2D00106A
:102E80007D2D00107D2D00107D2D00107D2D00105A
:102E90007D2D00107D2D00107D2D00107D2D00104A
:102EA0007D2D00107D2D00107D2D00107D2D00103A
:102EB0007D2D00107D2D00107D2D00107D2D00102A
:102EC0007D2D00107D2D001009320010A130001062
:102ED000093200107D2D00107D2D00107D2D001079
:102EE0007D2D00107D2D00107D2D00107D2D0010FA
:102EF0007D2D00107D2D00107D2D00107D2D0010EA
:102F00007D2D00107D2D00107D2D00107D2D0010D9
:102F10007D2D00100F3000107D2D00107D2D001034
:102F20007D2D00107D2D00107D2D00107D2D0010B9
:102F30007D2D00107D2D00107D2D00100F30001014
:102F4000A33100100F30001009320010A130001022
:102F5000093200107D2D00100F3000107D2D001063
:102F60007D2D00107D2D00107D2D00107D2D001079
:102F70000F300010773100107D2D00107D2D0010D6
:102F8000E53000107D2D00100F3000107D2D001059
:102F90007D2D00100F300010607843F480730134F1
:102FA0004AE7002606EB860600EB460614F8010FFA
:102FB000303EA0F13002092AF4D92E287FF40BAF5D
:102FC000607843F48063A0F13001092904F1010223
:102FD00040F203812A2800F010811446FBE63B46AC
:102FE0004646434501D803F1FF384246514600208A
:102FF000D847304611B0BDE8F08F55F8046B6078C3
:10300000002EBCBF43F0020376420134E0E678288C
:1030100000F02281582800F066816F2800F0F281CC
:10302000622800F0218169284FF00A0C23F010017A
:1030300040F01D815B0540F1218121F001016928EB
:1030400000F01C81642800F0198111F4007340F035
:10305000C281C80500F1E7814A0655F8043B00F13A
:10306000B481080648BF9BB200204246CDE9046106
:10307000CDE902C9009301901BE1607843F400732D
:103080000134D9E6A41700204D2D00102121001095
:103090006078682800F01B8143F080030134CBE6A0
:1030A000462808BF43F02003CDE903630735CDF878
:1030B000089025F00705F5E802014246CDE9000138
:1030C0003B4651465846FFF733FC013480465CE6E8
:1030D000424608F101063B4651462520B0460134E0
:1030E000D84752E6294651F8042B0B920F91B9F1BB
:1030F000000F40F0A98010786FF00105002800F063
:10310000A381DDF82CC0691C654662460C910D4414
:1031100001E0954206D012F8011F0029F9D10B9960
:10312000521A0C9213F480620D9204D00C9A4A4504
:1031300028BF4A460C9213F002030E9300F0EE8073
:10314000002800F0DA8042460B9D0B944C46B146B5
:103150000D9E26B1631E002C00F0B2801C463B463B
:103160005146D84715F8010F08F10108002800F072
:10317000A7804246EDE743F0210305930823002290
:10318000CDE903931023CDE9012355F8043B4246D2
:10319000009351463B465846FFF700F901348046FC
:1031A000F3E59A0740F1D48055F8040B3B464246BC
:1031B0005146C0B2D847012E08F1010988BF4644E4
:1031C00008D94A463B465146202009F10109D84713
:1031D000B145F6D1C8460134D7E54FF0000909EBF7
:1031E000890900EB490912F8010FA9F13009A0F192
:1031F00030010929F3D91446EFE555F8042BA078DE
:1032000022EAE2790234E8E500F0DF02472A04BF4F
:1032100000F0FD0043F40063452808BF43F020039D
:10322000CDE903630735CDF8089025F00705F5E8EB
:1032300002014246CDE900013B4651465846FFF7A0
:1032400063F901348046A0E50B9A1078002800F05D
:10325000F98009F1FF3554E74FF0100C23F00C0111
:103260005B057FF5ECAEE8E64FF0020C19466428EA
:1032700018BF0B46F2D14A053FF5DFAE88057FD473
:10328000CA0555F8043B00F1C180480600F19A8058
:103290000A0640F1D2801BB283EAE372A2EBE3722A
:1032A00092B200924246CDE90461CDE902C9DB0F3A
:1032B00001933B4651465846FFF770F880468AE72F
:1032C0000E9B4E460B9CC3B90F9D01345DE5A07863
:1032D00043F0C0030234AFE5A07843F440730234F6
:1032E000AAE5B0467DE623F00C015B054FF0100C1B
:1032F00041F020013FF5A1AEA7E60C9B45469E425A
:10330000E2D906EB0800A0EB03082A463B465146EB
:1033100020200135D8474545F7D1D5E70C9A96428C
:1033200002F1010340F2958006EB0805AD1A424612
:103330003B465146202008F10108D847A845F6D160
:10334000731C0C930B9B187800287FF4FCAEBBE732
:10335000012E7CD908F1FF331E4442463B465146BC
:10336000202008F10108D847B045F6D155F8040BE4
:103370003B4632465146C0B206F10108D8472AE71B
:10338000E81D20F00700054655F808EB4068724636
:1033900003464FF0000E002ACDE907614FEAD070D6
:1033A00073F10001CDE904CE0290CDF818900EDB48
:1033B000CDE90023514642463B465846FFF738F8D0
:1033C000804608E7DBB21A466BE7DBB24CE65242B6
:1033D00063EB4303ECE70023CDE90761CDE904C3C8
:1033E00007350293CDF8189025F00705F5E802019E
:1033F0004246CDE900013B4651465846FFF718F8D2
:103400008046E8E64FF0080C194630E783EAE3709F
:10341000A0EBE370DB0F4246CDE90461CDE902C9C0
:10342000CDE9000345E7CDE90461CDE902C9019387
:1034300055F8043B424600933BE783EAE372A2EB74
:10344000E3722EE70C906DE6CDF830906AE64646C2
:103450008CE70C9300287FF476AE35E730B505464F
:103460000C4685B0009302A9134604484FF0FF3282
:10347000CDE90254FFF76AFC05B030BDFD24001011
:1034800010B5094B84B01C684CB1034600914FF055
:10349000FF3203A90548A047012004B010BD00F089
:1034A0003FF9204604B010BDA4170020F5240010F9
:1034B00000BEFDE708B5FFF7FBFF00BF38B5FEF71C
:1034C000C1FB084D084B9D420BD2013B5B1B23F017
:1034D000030304332C461D4454F8043B9847AC4284
:1034E000FAD138BDA0550010A85500100368084651
:1034F00011461847437D2DE9F04706460F46914691
:10350000002B3BD0002A23DD00242046DFF8788002
:103510004D1EFCB12B7815F8012FA3F10D03B3FA62
:1035200083F30A2A4FEA531319D00134A145F0DC82
:10353000814504DDA9EB00013368384498474F44C6
:1035400017F8013CA3F10D03B3FA83F35B0933755C
:10355000BDE8F08715F8012F337D0A2AE5D1002B4D
:10356000E3D1A04203DA211A336838449847404631
:1035700002213368013498472046D7E70368114693
:103580003846BDE8F0471847305B0010F8B50D4BE2
:1035900005461C689CB10C4E071D01E0246974B1FE
:1035A0002368002BFAD033680BB1A342F6D1204632
:1035B00039462A68FFF79EFF2469002CF0D10023CA
:1035C0002B60F8BDD0120020D812002038B50B684F
:1035D0000D46802B044604D05A1C2B442A601C71D3
:1035E00038BD0846FFF7D2FF2B685A1C2B442A60CF
:1035F0001C7138BD70B5FEF7BFF80022094BC41826
:1036000041EB0205002C75F10003BCBF4FF0FF3405
:103610006FF0004522462B46BDE87040024801F09D
:1036200067BF00BF40420F006C0D00202DE9F04F36
:103630000D4683B01E4680469146FFF7DBFF6B1CAC
:10364000824603D1404601F00BFF05461A4B1B4A48
:103650001C681B4B002E14BF16461E46ECB14FF0E3
:103660000A0B184F01E02469BCB12368002BFAD083
:103670003B680BB1A342F6D12A4641462046B047EB
:10368000B9F1000FEFD0204601220DF107018DF8AE
:1036900007B0B0472469002CE7D1BAF1000F03D17D
:1036A000284603B0BDE8F08F074801F011FF284617
:1036B00003B0BDE8F08F00BFD0120020F534001039
:1036C000ED340010D81200206C0D0020084A136859
:1036D00023B90AE003F110021B6933B19842F9D112
:1036E00029B9036913600161704701B11060704727
:1036F000D012002008B500F053F9012008BD00BF2A
:10370000012310B5044682B0194600220DF10700CE
:103710008DF80740FFF78AFF204602B010BD00BFBA
:1037200038B5044601F09CFE012305461A462046A2
:103730002946FFF77BFF054B1C682CB1636803B17A
:1037400098472469002CF9D1284638BDD0120020B2
:1037500070B5A4B000910190FFF74CFFDDE9003295
:103760000024064603A90E480394FFF777FE039B47
:10377000054613B103A8FFF709FF0A4B1C682CB1DB
:10378000636803B198472469002CF9D116B928461B
:1037900024B070BD044801F09BFE284624B070BDE3
:1037A000CD350010D01200206C0D00200FB400B5F4
:1037B00083B004A951F8040B0191FFF7C9FF03B0CE
:1037C0005DF804EB04B0704700291EDD0F4A104B72
:1037D000126870B4D31AB3FA83F30D260D4C5B094B
:1037E000013834F91350441810F8011F8D4207D0E6
:1037F00093699B06FCD4A0421160F5D170BC704760
:1038000093699B06FCD41660F2E77047EC17002022
:103810000080074018180020002926DD10B4441E3F
:1038200000201C4B1A689369DB0619D40130936998
:10383000DB06FCD41368814204F8013FF3D1164B38
:103840001B6853B150211346916353F8342F02F093
:10385000380203F580531A60C8B15DF8044B704715
:103860000D4B1B68002BEDD1F6E70B4B1B685BB1D2
:10387000084B50211A681346916353F8342F02F015
:10388000380203F580531A606FF0020070476FF042
:103890000200E2E7EC170020D8110020054B1B685E
:1038A00033B10021044A0548126800689163184743
:1038B000704700BFD8110020EC170020DC11002059
:1038C000024B1A6893691B07FCD47047EC17002061
:1038D000F8B51B4F1B4D3E680446AE420CBF222577
:1038E000212520B1184B0A46196889B1F8BD164F39
:1038F0003B68002BFAD00146B0632846FDF748F834
:1039000028461249FDF798F9114B3C601C60F8BD40
:103910000F4E18600D4928463260FDF75FF801210F
:103920002846FDF735F83A6850211346916353F85D
:10393000342F02F0380203F580531A60F8BD00BF3F
:10394000EC17002000800740D81100209D3800109F
:10395000DC11002070B5104E0D463060101E1C4664
:1039600006DB10F0020F14BF0B210221FCF7F4FE5E
:10397000002C07DB14F0020F204614BF0B2102219C
:10398000FCF7EAFE29463068FDF79CFFBDE8704071
:1039900001210248FFF79ABEEC1700202C0D0020F1
:1039A000064B074A07491B78074812780123097814
:1039B00000224FF4E131FFF7CDBF00BF3C5C0010A7
:1039C000405C0010445C00100000074003BD00BFD5
:1039D00010B50446FEF74CF92346BDE810401847E1
:1039E0002DE9F041064686B0192090460F46FCF7B7
:1039F000E5FF002105461920FCF7CAFF002301223C
:103A00001C461946CDE900334FF05043CDE90387FA
:103A100005960292B4B11A6D9607FCD55C6540BF5D
:103A20001A6DD00703D420BF1A6DD207FBD59A6D4B
:103A3000A2420CD0002106AA02EB810252F8184CD7
:103A4000E8E79A6D1A6DD707FBD440BFE3E7013171
:103A50000529F0D92946192006B0BDE8F041FCF748
:103A600097BF00BF0B4B0C4A10B49A4288BF4FF06F
:103A7000FF330A4C0A4A03F2F4719268C3F8F40760
:103A8000C3F8FC4707485DF8044BC3F8F837FFF765
:103A9000A7BF00BF0008082000000820D13900108F
:103AA00000ED00E0CD390010F0B4002600F07F04F6
:103AB0001C4D630003EBD01305EB43131983C109BD
:103AC000987081F00100DA765870DE70B9B904237D
:103AD000154A03EBC4039F1805EB841087609E50C2
:103AE0003CB90022114B05EB41114A60CB60F0BCA0
:103AF00070470F4BE40023444360F0BC70470A4A10
:103B000005EB841002EBC40723B2876242F83360EE
:103B1000002CE6D0E40004F1A04404F580144462D3
:103B2000F0BC70479C130020800010500001105022
:103B300004001050038BC27E0A493F33022A23F04F
:103B40003F030A6810B408BF5B00074C1344A3424C
:103B50000B60C26002D85DF8044B70475DF8044BFF
:103B6000FEF76AB8A8170020FF0F105070B500F0DC
:103B70007F050446FFF798FF05B970BD0C4EE409B8
:103B800004EB450004EB450406EB441406EB40103F
:103B9000FFF7D0FFE368E27E83F0A04383F4801355
:103BA00043EA8263626843F00043136070BD00BF64
:103BB0009C13002038B500F0ADF80C234025124CC2
:103BC000FF22A3670E201149FCF738FF2A46002187
:103BD0000F4801F0F5FB002229461046FFF7C6FF0B
:103BE000294600228020FFF7C1FF4FF0005501F069
:103BF00097FC01204FF480320649074B2064E564AE
:103C0000C4F89010DA6438BD00001150450300205C
:103C10009C13002010D001000020115001210E2023
:103C2000FCF7B6BE00220248114600F093B800BF70
:103C3000BC130020044B197021B14FF40032034B28
:103C4000C3F89020704700BFF117002000201150EA
:103C50000B785B0602D14B78052B00D070474B8860
:103C6000014ADBB21360704700001150CA7802F0BD
:103C70000302012A09D008B50B4689889878C1F358
:103C80000A01FFF773FF012008BD0020704700BF45
:103C900001F046BC084610B501F07F01054CC00993
:103CA00000EB410004EB401011461A4600F052F8B8
:103CB000012010BD9C13002011F07F0308BF084AAB
:103CC0004FEAD11104BFC1F102009066054801EB33
:103CD000430100EB41104FF40062002101F038BCB9
:103CE000002011509C13002030B411F07F0401D14A
:103CF00030BC704700226300054803EBD11100EB94
:103D00004113184630BC6FF40061DA7001F020BC3A
:103D10009C1300204FF0805209480A4908B50A4B0D
:103D200002600A601968C94311F08051FAD14FF45A
:103D30008052064801F044FB0922054B5A6708BD32
:103D400000200240003002400800024000001050F5
:103D500000001150837E10B50446BBB9002001233A
:103D60002161E082A282A37604F11B01A01C01F074
:103D7000CFFB20B14FF40032084BC3F8902020460F
:103D800001F0D6FB28B10123237710BD01F0D8FB49
:103D9000E4E72046BDE8104001F0B2BB002011501E
:103DA000002070472DE9F0414FF000081B4C0746FA
:103DB00042461B4E23781B4D0DE02B6813EB42133C
:103DC00025D0DB683846984708F1010823785FFA68
:103DD00088F2934206D39342A2EB0303EDD806EB9D
:103DE0004313EEE7104B54221846002101F0E8FA85
:103DF0004FF0FF340346051DC5E90144EC605C60EB
:103E00002022BDE8F041FF21143001F0D9BA074B60
:103E10001B68DB0700D500BEBDE8F081F01700206D
:103E2000D85B0010140F00207C110020F0ED00E0A2
:103E3000704700BF704700BF0020704700207047E8
:103E400000207047704700BF704700BF704700BF39
:103E5000704700BF2DE9F047354F3B78FF2B4ED11F
:103E60000C4600294FD0002154220646314801F06B
:103E7000A7FA0022DFF8E0802F4B304D40461A7041
:103E8000FDF736F82E4B05F11400C3F80080FDF75E
:103E900061F8284601F0E6F92A4A2B4B156023B158
:103EA0002A4800E000BF2A4B18604FF0000A274D57
:103EB0005346DFF8A8902A78DFF894800CE0D8F811
:103EC000002012EB431311D05B687BB198472A782E
:103ED0005FFA8AF39A421ED39A420AF1010AEED897
:103EE0009B1A09EB43135B68002BEFD1194B1B683E
:103EF000DA0700D500BE00242046BDE8F087012483
:103F00002046BDE8F087134B1B68DB07F3D500BEE6
:103F10002046BDE8F087214630463E70FFF74AFE56
:103F200004460028EFD03046FFF778FEE8E700BFF0
:103F3000600D00207C110020F2170020440D0020AD
:103F4000D0110020D411002000000000F017002044
:103F5000140F0020F0ED00E074110020D85B001079
:103F60002DE9F04FA84F8BB03B78FF2B00F0EA8093
:103F7000A64CDFF8A892DFF8ACA2DFF8ACB2256857
:103F80006B69EFF3108272B6D3E8CF0F01210028DE
:103F9000FAD1C3E8401F0028F6D1BFF35F8FAA61B2
:103FA000284607A901F028F800236A69C2E88F3F74
:103FB000AB6983F31088002800F0C4809DF81D30A1
:103FC000013B072B00F26D83DFE803F0A2AD8E9773
:103FD00086360A04089B002BD1D009989847CEE773
:103FE0009DF820108A4B01F07F0503EB450303EB9E
:103FF000D11393F834006FF3000083F8340093F882
:1040000034006FF3820083F83400002D00F09D80AF
:1040100080481A7D03789A4280F08E80DBF8003069
:1040200013EB421300F089809D699DF82120099BC4
:104030009DF81C00A847A2E7774A1378002B7CD094
:104040001378013BDBB21370137803F0FF00002BF1
:1040500095D16F4E9DF81C80337843F00103337087
:1040600096F8343060F3000386F8343096F8343034
:1040700060F3820386F8343096F8353060F300033D
:1040800086F8353096F8353060F3820386F835309F
:1040900000F01EFC9DF8203003F06002602A0BD077
:1040A000402A5CD003F01F03012B00F0BF80022BDD
:1040B00000F08280002B5ED0D9F80030DD0700D5FB
:1040C00000BE9DF81C000021FFF7F6FD80219DF841
:1040D0001C00FFF7F1FD52E74D4B1B78D9077FF528
:1040E0004EAFFFF7B5FE4AE7494BDB78DA077FF5BD
:1040F00046AF0898FFF79EFE41E7454B1A78D00778
:104100007FF53DAF1878C0F3C000FFF79FFE36E79C
:104110009DF81C00FFF746FE00F0D0FB3C4B9DF8DD
:1041200020209A702BE79DF81C00FFF73BFE00F063
:10413000C5FBFFF789FE22E70FD0384B1B68DC0771
:1041400000D500BE0BB0BDE8F08F099B9DF8212083
:104150009DF81C0000F0D0FB11E7534664E730489F
:1041600000F0B6FB4046012108AAFFF719FE00281F
:104170007FF405AFA5E7202A00F08481002A9BD1B7
:104180009DF82130092B97D801A252F823F000BFE7
:104190002344001007440010B940001045440010AB
:1041A000B9400010ED4300109B430010B9400010CF
:1041B00085430010B34200109DF8241011F0700FD9
:1041C0007FF47AAF01F07F0506EB4503114803EB5E
:1041D000D1131B7D00786D00019583424FEAD11504
:1041E000009554D340F060815546002A00F060816C
:1041F000686900F06DFB404601216B6908AA984789
:1042000000287FF4BCAE5CE7600D0020D4110020D4
:104210007C110020F0170020F2170020F0ED00E0E4
:10422000A13D0010D85B0010140F00209DF8243031
:104230000F2B3FF646AFC94A33441B79127893429D
:1042400030D37FF43EAF5546686900F041FB012151
:1042500040466B6908AA984700287FF490AE9DF805
:10426000205015F060057FF42CAF9DF821300A3BFB
:10427000012B3FF626AF00F02BFB9DF821300A2BD7
:1042800000F0E481404608A900F0C4FA77E6DBF8C4
:10429000000000EB4315002A00F00A81002D3FF4D6
:1042A00010AFA5E7DBF8005015EB43153FF409AF5D
:1042B000CAE79DF8225073789D4200F03F817378E1
:1042C000002B40F0AF817570002D00F03581681E25
:1042D000C0B2FCF705FA002800F053814378022BA6
:1042E00040F04F81C2793178C2F340131B01C2F311
:1042F000801243EA421321F03002134333704388A3
:1043000000F10901C3180193CDF80C80019B8B4289
:1043100040F297814A780B2A00F0A2810123042AF7
:1043200040F02F81002290460092019A0493501A87
:104330008A4A80B2127802901DE0DBF8005015EB3B
:10434000481500F01E812B69029A03980591984741
:10435000009B082803F1010302460599009303D945
:10436000029B834280F0EF807C4B9DF800801A789E
:104370004245C0F006814245A8EB0202DDD80AEBB7
:104380004215E0E77578404601230DF11A0208A9AD
:104390008DF81A5000F058FAF1E5BDF82200030A32
:1043A0005A1EC0B20E2A3FF68CAE01A151F822F07F
:1043B000AB45001061440010E7450010C3400010F9
:1043C000C3400010C945001061440010C3400010F4
:1043D000C3400010C3400010C3400010C340001091
:1043E000C3400010C34000109D45001008A800F015
:1043F00075FA40469DF82210FFF714FC337843F01D
:1044000002033370BBE5BDF82230012B7FF459AEB7
:10441000337840466FF3C30308A9337000F0FAF90C
:10442000ADE5404633789D0805F00205C3F340131F
:104430001D4302230DF11A0208A9ADF81A5000F02D
:1044400003FA9CE5BDF82230012B7FF43AAE3378B5
:10445000404643F0080308A9337000F0DBF98EE50D
:10446000022B00F00281FFF7EBFC024600283FF42C
:1044700028AE4046538808A900F0E6F900287FF4EA
:104480007EAD1EE69DF824300F2B3FF61AAE334A60
:1044900033441B79127893421DD2DBF8005015EBA0
:1044A00043153FF40EAEA3E6002A7FF40AAE0025C2
:1044B0009DF8212002F0FD03012B10D0002A7FF48B
:1044C000FBAD019B009A3344134493F834504046AB
:1044D000C5F34005ADE77FF4F4AD554688E6BDF879
:1044E0002230ABB9012A00F086803878FFF7E4FB70
:1044F000019B009A3344134493F8342042F00202A3
:1045000083F8342093F8342042F0010283F83420F9
:10451000002D3FF434AD686900F0DAF96B690121D0
:1045200008AA40469847002000F0D2F996F83530A6
:10453000DE073FF524ADA5E6FFF786FC404608A957
:1045400000F068F91BE5049B012B00F0A480002B10
:1045500000F092808D780020009506E0F017002092
:10456000634585F8048040F28780009D054456FA33
:1045700085F595F804E00130BEF1FF0F5FFA80FC8D
:10458000EED0D9F80030DA0700D500BED9F80030F7
:10459000DB0700D500BE0023737092E5FFF74CFCEB
:1045A000024600287FF465AF8BE5FCF795F80246DC
:1045B00000283FF481AD4046122308A900F044F9D9
:1045C00000287FF4DCAC7CE5FFF738FC02460028CD
:1045D0003FF477AD4046137808A900F035F900287C
:1045E0007FF4CDAC6DE5BDF82410FCF77DF80246F4
:1045F0000028EFD165E538780293FFF775FB019B42
:1046000033441A46009B1A4492F83410029B63F319
:10461000410182F8341092F8341063F3000182F8FB
:10462000341075E700214046FFF704FB4046FFF7D2
:104630002FFBB37840460093FFF7B4FB009BB370A9
:1046400041E6DDF80C80FFF7FDFB77E740460123EC
:1046500008A90DF11A028DF81A5000F0F5F88EE451
:104660000A78CB7811444A7859E6FCF739F80246C3
:1046700000287FF4FEAE1FE543460D4802920091EC
:1046800000F0E2FB0B4B00991B78029A4345114462
:10469000BFF43CAE75E72869074DA84208BF022366
:1046A00058E7D9F80030DB077FF569AC00BE66E457
:1046B00090110020F0170020BD4B001038B58B780A
:1046C00013F0700F06D00B4B1B68DB0700D500BE44
:1046D000002038BD0C46084A084B204691781D78CA
:1046E00000F07EFB0028EED021462846BDE8384089
:1046F000FFF7BCBAF0ED00E07C110020600D002057
:10470000CB090548054A343301F07F0103EB410131
:104710000844116800F01EBB7C110020D01100205D
:10472000CB090548054A343301F07F0103EB410111
:104730000844116800F038BB7C110020D011002023
:1047400038B5154801F07F0500EB450000EBD114AA
:1047500094F834003034C00706D5104B1B68DA07D4
:1047600000D500BE002038BD25790D4845F0010573
:1047700000782571FFF78EFA0028F4D12379074AD3
:1047800060F300032371237960F3820323711368BC
:10479000DB07E7D500BE38BD7C110020F0ED00E05E
:1047A000600D0020194A30B5D1890446908992F9EC
:1047B0000050431A9BB2402B28BF4023002D83B0EA
:1047C00012DB88424FF0000107D02046104A03B0A8
:1047D000BDE83040FFF7B4BF80210022204603B07F
:1047E000BDE83040FFF7ACBF8842F5D0916808487B
:1047F0001A46019300F06EFD80212046044A019B79
:1048000003B0BDE83040FFF79BBF00BF580F00204A
:10481000180F002070B40B4D0A462C4600230646A4
:1048200008684968AB6003C492F9002030469A4298
:10483000EB60A8BF802170BCB8BF19461A46FFF7CD
:104840007FBF00BF580F0020F8B51A4D0C462E460A
:104850004FF0000C496807462068AA6003C6A5F817
:104860000EC0E6883846B34228BF3346AB8136B126
:1048700003B1B2B1FFF796FF68B10120F8BD94F91A
:1048800000303246002BACBF802100213346FFF7B9
:1048900057FF0028F1D1084B1B68DB0705D500BE88
:1048A000F8BD054B1B68D90701D40020F8BD00BE38
:1048B0001046F8BD580F0020F0ED00E00022034B39
:1048C000C3E90022C3E902221A617047580F002091
:1048D000014B1861704700BF580F002030B40246EA
:1048E000044C0025234600685168A560E56003C3B9
:1048F00030BC7047580F0020F8B52E4CC9092578F8
:104900001F46B1EBD51F06461CD033B12A4B1B689E
:10491000DA0700D500BE0020F8BD2146FFF798F960
:1049200023696BB122463046032198470120F8BD28
:1049300001463046FFF7C0F930468021FFF7BCF949
:104940000120F8BD94F90020002A06DBA0680028A9
:10495000E1D01A46194900F0BDFCE289A168E0885F
:104960003A4492B239449042E281A16007D03F2F8D
:1049700005D93046FFF716FF0028E1D114E023697E
:104980002BB1022130460B4A98470028D0D0002393
:1049900094F9002030469A42ACBF802119461A464D
:1049A000FFF7CEFE0028CBD1034B1B68DB07B2D547
:1049B00000BEF8BD580F0020F0ED00E0180F0020F9
:1049C0002DE9F0414FF4A47404FB00F4144F04F1FA
:1049D00010063E440546304600F0FCFA3F2801D858
:1049E000BDE8F0813C440020A178FFF789FE002853
:1049F000F6D0304600F0EEFA3F280AD94023094AA3
:104A000003EBC515A1782A440020BDE8F041FFF76B
:104A100097BEA1780020BDE8F041FFF781BE00BF3E
:104A20002C100020AC0F0020F8B54FF4A47404FB48
:104A300000F4174F04F124063E440546304600F0CA
:104A4000B9FA08B90020F8BD3C4400206178FFF7AE
:104A500057FE0028F6D00F49304601EBC515294610
:104A6000402200F0F1FA064660B103462A460020D3
:104A70006178FFF765FE40B9074B1B68DB07E1D59E
:104A800000BEF8BD6178FFF74BFE3046F8BD00BFB1
:104A90002C100020AC0F0020F0ED00E04FF4A472C9
:104AA00002FB00F238B505460A4883189B780BB91B
:104AB000184638BD10321044042200F0C5FA0446EE
:104AC0002846FFF77DFFA4F10400B0FA80F040090A
:104AD00038BD00BF2C1000204FF4A47303FB00F37B
:104AE00070B50C4DEA1852780AB9002070BD243315
:104AF0001D44044628460E4600F06CFA0328F4D9FB
:104B000031460422284600F00FFB2046FFF78CFFB9
:104B1000012070BD2C100020F0B50025144C83B08E
:104B200029464FF4A472204600F04AFC04F13801F3
:104B30000123802204F11000009500F009FA04F529
:104B40009C770123802204F1B801009504F1240030
:104B500000F0FEF904F5A0763846FCF7C9F93046B6
:104B6000FCF7C6F927622663E561656303B0F0BD13
:104B70002C100020064B1A6A196B12B10022C3E9EF
:104B8000072211B10022C3E90C220120704700BFA7
:104B90002C100020002310B5074C04F11000C4E9CC
:104BA0000033C4E9023300F05DFB04F12400BDE8EA
:104BB000104000F057BB00BF2C1000202DE9F0433F
:104BC0004B7983B0012B02D18B79012B04D00025C6
:104BD000284603B0BDE8F083CB79002BF7D10B78E2
:104BE0000646CC18657899B2242D0BD1914202D992
:104BF000EDE78A42EBD323781C4465780B44242DDF
:104C000099B2F6D0042DE2D16379012BDFD1A379DB
:104C1000032BDCD1E579002DD9D1DFF8988098F805
:104C2000010098F8023050EA030705D0204B1B68BA
:104C3000DB07CCD500BECBE7A378207988F800301D
:104C400094F8009001EB09039DB2A14438B924E027
:104C500099F80030B8421D44ADB299441DD9AA421A
:104C60001BD399F80130052BF2D149463046019209
:104C7000FFF724FD019AA0B199F802302079D909F3
:104C800014BF88F8013088F8023099F800107B1CB6
:104C90000D44DFB2ADB28944DAE70020FFF790FEA1
:104CA00096E7034B1B68DA0791D500BE05468FE7F0
:104CB000F0ED00E02C10002000207047F8B5214EE8
:104CC0001C46B2788A4210D19AB21F4906F11000F0
:104CD00000F02AFA1D4B13B10020FBF7CFFC002097
:104CE000FFF76EFE01252846F8BD73788B4208D089
:104CF000174B1D6815F00105F5D000BE00252846AC
:104D0000F8BD07460020FFF78FFE10B101252846A9
:104D1000F8BD06F1240000F04DF90028F6D1002C72
:104D2000F4D014F03F04F1D138467178FFF7E8FC75
:104D300005460028EAD03846234622467178FFF718
:104D4000FFFCD0E72C100020EC0F00207D060010A7
:104D5000F0ED00E0F8B5037813F001041AD1037800
:104D600005465A07C3F3800701D52046F8BD0E4615
:104D70004FF0FF31304600F0B3FB2B7813F0010405
:104D80000BD12B785B0709D42B78012443F0040363
:104D90002B7003E000242046F8BD3C46304600F06E
:104DA00097FB2046F8BD00BF70B504460D46084687
:104DB0004FF0FF3100F094FB2378C3F380065B07CC
:104DC00008D5237813F0010211BF0026237862F37F
:104DD00082032370284600F07BFB304670BD00BF85
:104DE000C378828803F003000228C2F30A0205D0C8
:104DF000032819D0012807D00020704702291CD0B1
:104E0000402A09D801207047022940F2FF3308BF29
:104E10004FF480639342F6D20A4B186810F00100F9
:104E2000F1D000BE0020704702290CBF4FF4806310
:104E300040239342F0D30120E5E7B2F5007FE1D0B3
:104E4000EAE700BFF0ED00E00A44914210D230B42E
:104E50004C78052C06D18C7804F07F0500EB4505D5
:104E6000E4092B550C7821448A42F1D830BC7047B4
:104E7000704700BF38B58488D51A9A4238BF05EB11
:104E80004405ADB2C5B1AC4209D2944294BF131BE4
:104E9000A3189BB29C42438103D81B1B9BB29C422C
:104EA000FBD9C2880468C2F30E02084602FB034124
:104EB00000F010FA012038BD284638BD2DE9F04732
:104EC000BDF8204085881E1BA34238BF06EB45066F
:104ED000B6B207468846DEB1B54231D3964228BF06
:104EE0001646A54203D8641BA4B2A542FBD9B7F865
:104EF00006902B1B39689BB2C9F30E029E42914665
:104F000002FB041107D8404602FB06F200F0E2F96A
:104F10003046BDE8F08713FB02F31FFA83FA5246CE
:104F2000404600F0D7F9731B1C4414FB09F43968A0
:104F300008EB0A00A2B200F0CDF93046BDE8F087D8
:104F40009D4294BF5C1BEC18A4B22E464481C5E779
:104F50002DE9F041B2F5004F9DF8188027D804469E
:104F6000C06817460E461D4618B14FF0FF3100F0DD
:104F7000B7FA206918B14FF0FF3100F0B1FA002202
:104F8000C5F30E03E06843EAC8336281E38026601C
:104F9000A780228108B100F09BFA206920B100F0BF
:104FA00097FA0120BDE8F0810120BDE8F0810020E2
:104FB000BDE8F081038942899BB292B28088934216
:104FC00036BFC2EB40029B1A9B189BB2984228BF87
:104FD00018467047038942899BB2808892B29342F7
:104FE00036BFC2EB40029B1A9B189BB2984286BF09
:104FF000C01A80B20020704738B5044600690D46DB
:1050000018B14FF0FF3100F06BFA2289638929460D
:1050100092B29BB22046FFF72DFF6289A18892B21F
:1050200013189BB29A4205464FEA410209D8B3EBE6
:10503000410F06DA2069638108B100F049FA284679
:1050400038BD9B1A9BB2F5E730B5044600690D46A2
:1050500085B028B14FF0FF31039200F041FA039A76
:1050600023896089294680B29BB200902046FFF7D1
:1050700025FF6289A18892B283189BB29A420546A5
:105080004FEA41020AD8B3EB410F07DA2069638186
:1050900008B100F01DFA284605B030BD9B1A9BB23E
:1050A000F4E700BFF8B50446C0680E4618B14FF0EB
:1050B000FF3100F015FA2589238961899BB289B2F5
:1050C000A2888B4236BFC1EB42015B1A5B189BB2D0
:1050D0009A42ADB208D8E779FF0905D1E06808B176
:1050E00000F0F6F93846F8BD95422B4603D39B1ADB
:1050F0009BB29342FBD2E2882068C2F30E0202FB0D
:105100000300314600F0E6F86B1CA2889BB29D427A
:105110004FEA420104D95B1A9BB201272381DDE7E4
:10512000B3EB420FF9DBF6E72DE9F04F144683B0FD
:1051300002B30546C068894618B14FF0FF3100F050
:10514000CFF9EA79B5F808806B89D209AF881FFAE0
:1051500088F89BB212D1984536BFC3EB4703A8EB42
:10516000030343449BB29F4229D80024E86808B156
:1051700000F0AEF9204603B0BDE8F08FBC4250D23B
:10518000984536BFC3EB4702A8EB0302424492B2F4
:10519000790022448A4219DB03EB070A1FFA8AFAD4
:1051A000AAEB04081FFA88F8434557D9A8EB010871
:1051B0001FFA88F804EB080A1FFA8AFA0AE0FB1AB9
:1051C0009AB2944228BF1446002CCFD004EB080AB0
:1051D0001FFA8AFA4745464603D8F61BB6B2BE42C6
:1051E000FBD2B5F806B0BB1B28689BB2CBF30E020E
:1051F000A342934602FB06001CD3494602FB04F27D
:1052000000F068F8AA88C2454FEA420302D3BAEB1D
:10521000420F03DBAAEB030A1FFA8AFAA5F808A0DB
:10522000A4E7E988E41BC1F30E0101FB0499984649
:105230003C46C9E713FB02F2E71B374417FB0BFBA5
:10524000494692B2019200F045F8019A286809EBAC
:1052500002011FFA8BF200F03DF8D3E74145B9DCBB
:10526000A4E700BF10B50446C06818B14FF0FF3185
:1052700000F036F9206918B14FF0FF3100F030F935
:105280000023E0686381238108B100F021F92069DF
:1052900008B100F01DF9012010BD00BF00B545F2B6
:1052A00047308BB0FCF78AFC01220346092101A894
:1052B0009847074A0DF113030DF10B0013F801197C
:1052C000834202F8011FF9D10BB05DF804FB00BF67
:1052D000CB170020844641EA000313F0030349D1B1
:1052E000403A23D30B6803604B6843608B6883604C
:1052F000CB68C3600B6903614B6943618B69836150
:10530000CB69C3610B6A03624B6A43628B6A836237
:10531000CB6AC3620B6B03634B6B43638B6B83631F
:10532000CB6BC36340304031403ADBD230320BD3D9
:105330000B6803604B6843608B688360CB68C36015
:1053400010301031103AF3D20C3205D351F8043B2F
:1053500040F8043B043AF9D2043208D0D2071CBF0B
:1053600011F8013B00F8013B01D30B880380604634
:10537000704700BF082A13D38B07B1D010F0030386
:10538000AED0C3F10403D21ADB071CBF11F8013BF6
:1053900000F8013BA4D331F8023B20F8023B9FE721
:1053A000043AD9D3013A11F8013B00F8013BF9D294
:1053B0000B7803704B7843708B788370604670472E
:1053C000F0B4860746D0541E002A3CD0CAB2034629
:1053D00001E0013C37D303F8012B9D07F9D1032CE1
:1053E0002AD9CDB20F2C45EA052545EA054534D921
:1053F000A4F1100603F1200703F1100226F00F0CB0
:105400003609674442E9045542E902551032BA426E
:10541000F8D1721C14F00C0F04F00F0603EB02120B
:1054200013D0331F23F003030433134442F8045B07
:105430009342FBD106F003042CB1CAB21C4403F81A
:10544000012B9C42FBD1F0BC704734461346002C24
:10545000F3D1F8E714460346C1E71A462646E0E7CB
:1054600020F0030110F00300C0F1000051F8043BEC
:1054700000F1040C4FEACC0C6FF000021CBF22FAC2
:105480000CF213434FF0010C4CEA0C2C4CEA0C4C80
:10549000A3EB0C0222EA030212EACC1204BF51F879
:1054A000043B0430F4D0C2F1000102EA0102B2FA76
:1054B00082F2C2F11F0200EBD2007047F8B500BFC4
:1054C00001B40248844601BC604700BF6509002062
:1054D00001B40248844601BC604700BF310200208D
:1054E00001B40248844601BC604700BF01020020AD
:1054F00001B40248844601BC604700BFCD010020D2
:1055000001B40248844601BC604700BFA9060020E0
:1055100001B40248844601BC604700BF0106002078
:1055200001B40248844601BC604700BF6902002004
:1055300001B40248844601BC604700BF2906002030
:1055400001B40248844601BC604700BF59060020F0
:1055500001B40248844601BC604700BF65060020D4
:10556000291D00109D1C0010D11C0010751D00107D
:10557000091D0010E91B0010511D0010D51B001063
:10558000290F0010551D0010D5130010351C0010F8
:105590003D1D0010ED1C00104D0900107509001094
:0855A000150200109D520010DD
:1055A8004D6968617368693A2043505520636C6F90
:1055B800636B2073657420746F202564204D487ACE
:1055C8000A00000053797374656D20636C6F636B18
:1055D800206F66202575206B487A2063616E6E6F98
:1055E800742062652065786163746C7920616368F2
:1055F80069657665640000004D6968617368693A99
:1056080020486F7374204750494F20696E69746948
:10561800616C697A6564202854583A25642C2052B4
:10562800583A2564290A00004D6968617368692041
:10563800486F73743A2050696E672073656E740002
:105648004D69686173686920486F73743A204465CE
:105658007669636520646574656374656400000039
:105668004D69686173686920486F73743A20466FA2
:105678007277617264656420646576696365207019
:1056880061636B6574205B253032582025303258B1
:10569800202530325820253032585D0A000000009D
:1056A8004D69686173686920436F7265313A2053A8
:1056B80074617274696E672073696D706C652068B7
:1056C8006F7374207461736B000000004D6968612A
:1056D800736869204272696467653A20486F737419
:1056E8002D3E446576696365205B25303258202558
:1056F800303258202530325820253032585D0A0083
:10570800594553004E4F00003D3D3D204D696861AD
:105718007368692053696D706C65204475616C20ED
:10572800537461747573203D3D3D0000446576698E
:1057380063652052656164793A2025730A00000088
:10574800486F73742052656164793A2025730A00A2
:105758004465766963652052583A20256C752C207B
:1057680054583A20256C750A00000000486F73747D
:105778002052583A20256C752C2054583A20256C14
:10578800750A0000557074696D653A20256C75209E
:105798007365636F6E64730A000000003D3D3D3D14
:1057A8003D3D3D3D3D3D3D3D3D3D3D3D3D3D3D3D21
:1057B8003D3D3D3D3D3D3D3D3D3D3D3D3D3D00008B
:1057C8000A3D3D3D204D6968617368692053696DE4
:1057D800706C65204475616C205553422076312EDB
:1057E80030203D3D3D00000048617264776172657C
:1057F8003A20525032333530410000004D6F646515
:105808003A2055534220446576696365202B20531E
:10581800696D706C6520486F7374204272696467A3
:10582800650000003D3D3D3D3D3D3D3D3D3D3D3D2F
:105838003D3D3D3D3D3D3D3D3D3D3D3D3D3D3D3D90
:105848003D3D3D3D3D3D3D3D000000004D696861E9
:105858007368693A2053696D706C65206475616C72
:1058680020737461636B20696E697469616C697A0D
:10587800656400004D6968617368693A2052656122
:10588800647920666F72204D4944492062726964C8
:1058980067696E67000000004D6968617368692078
:1058A8004465766963652052583A205B2530325842
:1058B8002025303258202530325820253032585D86
:1058C8000A0000004D696861736869204272696462
:1058D80067653A204465766963652D3E486F737441
:1058E80020717565756564004D6968617368692024
:1058F8004272696467653A204465766963652D3E3E
:10590800486F7374206275666665722066756C6C84
:10591800000000004D69686173686920446576205D
:1059280050726F6A656374004D69686173686920B5
:10593800555342204D4944492042726964676500C5
:105948004D4442303031000009040000090265006E
:10595800020100A03209040000000101000009242E
:10596800010001090001010904010002010300000E
:105978000724010001410006240201010006240257
:1059880002020009240301030102010009240302A1
:10599800040101010009050102400000000005257D
:1059A80001010109058102400000000005250101EF
:1059B800030000001201000200000040091201006B
:1059C80000010102030100000A2A2A2A2050414E40
:1059D8004943202A2A2A0A004E6F207370696E6C88
:1059E8006F636B732061726520617661696C6162B7
:1059F8006C650000486172647761726520616C6152
:105A0800726D20256420616C726561647920636C15
:105A180061696D6564000000486172642061737398
:105A28006572740052656C6561736500626F6F74AE
:105A3800325F77323571303830000000322E312E27
:105A4800310000007069636F320000006D696861A1
:105A58007368695F73696D706C655F6475616C000C
:105A68004A756E20323620323032350005005250E9
:105A7800DE65F468C0680010060052505422A29DEA
:105A8800685A001006005250861C0302545A00102F
:105A980006005250BBFF3CB64C5A0010060052504C
:105AA800ABB36053445A001006005250E182887F1D
:105AB800345A001006005250D3F075422C5A001088
:105AC800666E6900666E692B000000006E616E00EC
